{
  "_format": "hh-sol-artifact-1",
  "contractName": "IdentityContract",
  "sourceName": "contracts/IdentityContract.sol",
  "abi": [
    {
      "inputs": [],
      "stateMutability": "nonpayable",
      "type": "constructor"
    },
    {
      "anonymous": false,
      "inputs": [
        {
          "indexed": true,
          "internalType": "address",
          "name": "owner",
          "type": "address"
        },
        {
          "indexed": true,
          "internalType": "address",
          "name": "approved",
          "type": "address"
        },
        {
          "indexed": true,
          "internalType": "uint256",
          "name": "tokenId",
          "type": "uint256"
        }
      ],
      "name": "Approval",
      "type": "event"
    },
    {
      "anonymous": false,
      "inputs": [
        {
          "indexed": true,
          "internalType": "address",
          "name": "owner",
          "type": "address"
        },
        {
          "indexed": true,
          "internalType": "address",
          "name": "operator",
          "type": "address"
        },
        {
          "indexed": false,
          "internalType": "bool",
          "name": "approved",
          "type": "bool"
        }
      ],
      "name": "ApprovalForAll",
      "type": "event"
    },
    {
      "anonymous": false,
      "inputs": [
        {
          "indexed": true,
          "internalType": "address",
          "name": "owner",
          "type": "address"
        },
        {
          "indexed": true,
          "internalType": "uint256",
          "name": "tokenId",
          "type": "uint256"
        }
      ],
      "name": "IdentityMinted",
      "type": "event"
    },
    {
      "anonymous": false,
      "inputs": [
        {
          "indexed": true,
          "internalType": "address",
          "name": "from",
          "type": "address"
        },
        {
          "indexed": true,
          "internalType": "address",
          "name": "to",
          "type": "address"
        },
        {
          "indexed": true,
          "internalType": "uint256",
          "name": "tokenId",
          "type": "uint256"
        }
      ],
      "name": "Transfer",
      "type": "event"
    },
    {
      "inputs": [
        {
          "internalType": "address",
          "name": "to",
          "type": "address"
        },
        {
          "internalType": "uint256",
          "name": "tokenId",
          "type": "uint256"
        }
      ],
      "name": "approve",
      "outputs": [],
      "stateMutability": "nonpayable",
      "type": "function"
    },
    {
      "inputs": [
        {
          "internalType": "address",
          "name": "owner",
          "type": "address"
        }
      ],
      "name": "balanceOf",
      "outputs": [
        {
          "internalType": "uint256",
          "name": "",
          "type": "uint256"
        }
      ],
      "stateMutability": "view",
      "type": "function"
    },
    {
      "inputs": [],
      "name": "getAllIdentities",
      "outputs": [
        {
          "components": [
            {
              "internalType": "string",
              "name": "name",
              "type": "string"
            },
            {
              "internalType": "bool",
              "name": "isHappy",
              "type": "bool"
            },
            {
              "internalType": "string",
              "name": "thoughts",
              "type": "string"
            },
            {
              "internalType": "string",
              "name": "photo",
              "type": "string"
            },
            {
              "internalType": "address",
              "name": "owner",
              "type": "address"
            }
          ],
          "internalType": "struct IdentityContract.Identity[]",
          "name": "",
          "type": "tuple[]"
        }
      ],
      "stateMutability": "view",
      "type": "function"
    },
    {
      "inputs": [
        {
          "internalType": "uint256",
          "name": "tokenId",
          "type": "uint256"
        }
      ],
      "name": "getApproved",
      "outputs": [
        {
          "internalType": "address",
          "name": "",
          "type": "address"
        }
      ],
      "stateMutability": "view",
      "type": "function"
    },
    {
      "inputs": [
        {
          "internalType": "uint256",
          "name": "tokenId",
          "type": "uint256"
        }
      ],
      "name": "getIdentity",
      "outputs": [
        {
          "internalType": "string",
          "name": "",
          "type": "string"
        },
        {
          "internalType": "bool",
          "name": "",
          "type": "bool"
        },
        {
          "internalType": "string",
          "name": "",
          "type": "string"
        }
      ],
      "stateMutability": "view",
      "type": "function"
    },
    {
      "inputs": [
        {
          "internalType": "address",
          "name": "owner",
          "type": "address"
        },
        {
          "internalType": "address",
          "name": "operator",
          "type": "address"
        }
      ],
      "name": "isApprovedForAll",
      "outputs": [
        {
          "internalType": "bool",
          "name": "",
          "type": "bool"
        }
      ],
      "stateMutability": "view",
      "type": "function"
    },
    {
      "inputs": [
        {
          "internalType": "string",
          "name": "_name",
          "type": "string"
        },
        {
          "internalType": "string",
          "name": "_thoughts",
          "type": "string"
        },
        {
          "internalType": "bool",
          "name": "_isHappy",
          "type": "bool"
        },
        {
          "internalType": "string",
          "name": "_photo",
          "type": "string"
        }
      ],
      "name": "mintIdentity",
      "outputs": [],
      "stateMutability": "nonpayable",
      "type": "function"
    },
    {
      "inputs": [],
      "name": "name",
      "outputs": [
        {
          "internalType": "string",
          "name": "",
          "type": "string"
        }
      ],
      "stateMutability": "view",
      "type": "function"
    },
    {
      "inputs": [
        {
          "internalType": "uint256",
          "name": "tokenId",
          "type": "uint256"
        }
      ],
      "name": "ownerOf",
      "outputs": [
        {
          "internalType": "address",
          "name": "",
          "type": "address"
        }
      ],
      "stateMutability": "view",
      "type": "function"
    },
    {
      "inputs": [
        {
          "internalType": "address",
          "name": "from",
          "type": "address"
        },
        {
          "internalType": "address",
          "name": "to",
          "type": "address"
        },
        {
          "internalType": "uint256",
          "name": "tokenId",
          "type": "uint256"
        }
      ],
      "name": "safeTransferFrom",
      "outputs": [],
      "stateMutability": "nonpayable",
      "type": "function"
    },
    {
      "inputs": [
        {
          "internalType": "address",
          "name": "from",
          "type": "address"
        },
        {
          "internalType": "address",
          "name": "to",
          "type": "address"
        },
        {
          "internalType": "uint256",
          "name": "tokenId",
          "type": "uint256"
        },
        {
          "internalType": "bytes",
          "name": "data",
          "type": "bytes"
        }
      ],
      "name": "safeTransferFrom",
      "outputs": [],
      "stateMutability": "nonpayable",
      "type": "function"
    },
    {
      "inputs": [
        {
          "internalType": "address",
          "name": "operator",
          "type": "address"
        },
        {
          "internalType": "bool",
          "name": "approved",
          "type": "bool"
        }
      ],
      "name": "setApprovalForAll",
      "outputs": [],
      "stateMutability": "nonpayable",
      "type": "function"
    },
    {
      "inputs": [
        {
          "internalType": "bytes4",
          "name": "interfaceId",
          "type": "bytes4"
        }
      ],
      "name": "supportsInterface",
      "outputs": [
        {
          "internalType": "bool",
          "name": "",
          "type": "bool"
        }
      ],
      "stateMutability": "view",
      "type": "function"
    },
    {
      "inputs": [],
      "name": "symbol",
      "outputs": [
        {
          "internalType": "string",
          "name": "",
          "type": "string"
        }
      ],
      "stateMutability": "view",
      "type": "function"
    },
    {
      "inputs": [
        {
          "internalType": "uint256",
          "name": "tokenId",
          "type": "uint256"
        }
      ],
      "name": "tokenURI",
      "outputs": [
        {
          "internalType": "string",
          "name": "",
          "type": "string"
        }
      ],
      "stateMutability": "view",
      "type": "function"
    },
    {
      "inputs": [
        {
          "internalType": "address",
          "name": "from",
          "type": "address"
        },
        {
          "internalType": "address",
          "name": "to",
          "type": "address"
        },
        {
          "internalType": "uint256",
          "name": "tokenId",
          "type": "uint256"
        }
      ],
      "name": "transferFrom",
      "outputs": [],
      "stateMutability": "nonpayable",
      "type": "function"
    },
    {
      "inputs": [
        {
          "internalType": "uint256",
          "name": "tokenId",
          "type": "uint256"
        },
        {
          "internalType": "string",
          "name": "_thoughts",
          "type": "string"
        },
        {
          "internalType": "bool",
          "name": "_isHappy",
          "type": "bool"
        }
      ],
      "name": "updateIdentity",
      "outputs": [],
      "stateMutability": "nonpayable",
      "type": "function"
    }
  ],
  "bytecode": "0x60806040523480156200001157600080fd5b506040518060400160405280600881526020017f4964656e746974790000000000000000000000000000000000000000000000008152506040518060400160405280600381526020017f494454000000000000000000000000000000000000000000000000000000000081525081600090816200008f919062000365565b508060019081620000a1919062000365565b50505033600760006101000a81548173ffffffffffffffffffffffffffffffffffffffff021916908373ffffffffffffffffffffffffffffffffffffffff1602179055506200044c565b600081519050919050565b7f4e487b7100000000000000000000000000000000000000000000000000000000600052604160045260246000fd5b7f4e487b7100000000000000000000000000000000000000000000000000000000600052602260045260246000fd5b600060028204905060018216806200016d57607f821691505b60208210810362000183576200018262000125565b5b50919050565b60008190508160005260206000209050919050565b60006020601f8301049050919050565b600082821b905092915050565b600060088302620001ed7fffffffffffffffffffffffffffffffffffffffffffffffffffffffffffffffff82620001ae565b620001f98683620001ae565b95508019841693508086168417925050509392505050565b6000819050919050565b6000819050919050565b600062000246620002406200023a8462000211565b6200021b565b62000211565b9050919050565b6000819050919050565b620002628362000225565b6200027a62000271826200024d565b848454620001bb565b825550505050565b600090565b6200029162000282565b6200029e81848462000257565b505050565b5b81811015620002c657620002ba60008262000287565b600181019050620002a4565b5050565b601f8211156200031557620002df8162000189565b620002ea846200019e565b81016020851015620002fa578190505b6200031262000309856200019e565b830182620002a3565b50505b505050565b600082821c905092915050565b60006200033a600019846008026200031a565b1980831691505092915050565b600062000355838362000327565b9150826002028217905092915050565b6200037082620000eb565b67ffffffffffffffff8111156200038c576200038b620000f6565b5b62000398825462000154565b620003a5828285620002ca565b600060209050601f831160018114620003dd5760008415620003c8578287015190505b620003d4858262000347565b86555062000444565b601f198416620003ed8662000189565b60005b828110156200041757848901518255600182019150602085019450602081019050620003f0565b8683101562000437578489015162000433601f89168262000327565b8355505b6001600288020188555050505b505050505050565b613766806200045c6000396000f3fe608060405234801561001057600080fd5b506004361061010b5760003560e01c806370a08231116100a2578063a22cb46511610071578063a22cb465146102cc578063b88d4fde146102e8578063c87b56dd14610304578063d53ea4e414610334578063e985e9c5146103505761010b565b806370a082311461022e5780637eeede351461025e57806385e3f0581461027c57806395d89b41146102ae5761010b565b806323b872dd116100de57806323b872dd146101aa5780632de3b6d2146101c657806342842e0e146101e25780636352211e146101fe5761010b565b806301ffc9a71461011057806306fdde0314610140578063081812fc1461015e578063095ea7b31461018e575b600080fd5b61012a600480360381019061012591906120d6565b610380565b604051610137919061211e565b60405180910390f35b610148610462565b60405161015591906121c9565b60405180910390f35b61017860048036038101906101739190612221565b6104f4565b604051610185919061228f565b60405180910390f35b6101a860048036038101906101a391906122d6565b61053a565b005b6101c460048036038101906101bf9190612316565b610651565b005b6101e060048036038101906101db91906124ca565b6106b1565b005b6101fc60048036038101906101f79190612316565b6107fd565b005b61021860048036038101906102139190612221565b61081d565b604051610225919061228f565b60405180910390f35b61024860048036038101906102439190612539565b6108a3565b6040516102559190612575565b60405180910390f35b61026661095a565b604051610273919061273e565b60405180910390f35b61029660048036038101906102919190612221565b610be0565b6040516102a593929190612760565b60405180910390f35b6102b6610dac565b6040516102c391906121c9565b60405180910390f35b6102e660048036038101906102e191906127a5565b610e3e565b005b61030260048036038101906102fd9190612886565b610e54565b005b61031e60048036038101906103199190612221565b610eb6565b60405161032b91906121c9565b60405180910390f35b61034e60048036038101906103499190612909565b610f1e565b005b61036a600480360381019061036591906129c4565b61123a565b604051610377919061211e565b60405180910390f35b60007f80ac58cd000000000000000000000000000000000000000000000000000000007bffffffffffffffffffffffffffffffffffffffffffffffffffffffff1916827bffffffffffffffffffffffffffffffffffffffffffffffffffffffff1916148061044b57507f5b5e139f000000000000000000000000000000000000000000000000000000007bffffffffffffffffffffffffffffffffffffffffffffffffffffffff1916827bffffffffffffffffffffffffffffffffffffffffffffffffffffffff1916145b8061045b575061045a826112ce565b5b9050919050565b60606000805461047190612a33565b80601f016020809104026020016040519081016040528092919081815260200182805461049d90612a33565b80156104ea5780601f106104bf576101008083540402835291602001916104ea565b820191906000526020600020905b8154815290600101906020018083116104cd57829003601f168201915b5050505050905090565b60006104ff82611338565b6004600083815260200190815260200160002060009054906101000a900473ffffffffffffffffffffffffffffffffffffffff169050919050565b60006105458261081d565b90508073ffffffffffffffffffffffffffffffffffffffff168373ffffffffffffffffffffffffffffffffffffffff16036105b5576040517f08c379a00000000000000000000000000000000000000000000000000000000081526004016105ac90612ad6565b60405180910390fd5b8073ffffffffffffffffffffffffffffffffffffffff166105d4611383565b73ffffffffffffffffffffffffffffffffffffffff1614806106035750610602816105fd611383565b61123a565b5b610642576040517f08c379a000000000000000000000000000000000000000000000000000000000815260040161063990612b68565b60405180910390fd5b61064c838361138b565b505050565b61066261065c611383565b82611444565b6106a1576040517f08c379a000000000000000000000000000000000000000000000000000000000815260040161069890612bfa565b60405180910390fd5b6106ac8383836114d9565b505050565b6000831180156106c657506006805490508311155b610705576040517f08c379a00000000000000000000000000000000000000000000000000000000081526004016106fc90612c66565b60405180910390fd5b600060066001856107169190612cb5565b8154811061072757610726612ce9565b5b906000526020600020906005020190503373ffffffffffffffffffffffffffffffffffffffff168160040160009054906101000a900473ffffffffffffffffffffffffffffffffffffffff1673ffffffffffffffffffffffffffffffffffffffff16146107c9576040517f08c379a00000000000000000000000000000000000000000000000000000000081526004016107c090612d64565b60405180910390fd5b828160020190816107da9190612f30565b50818160010160006101000a81548160ff02191690831515021790555050505050565b61081883838360405180602001604052806000815250610e54565b505050565b600080610829836117d2565b9050600073ffffffffffffffffffffffffffffffffffffffff168173ffffffffffffffffffffffffffffffffffffffff160361089a576040517f08c379a00000000000000000000000000000000000000000000000000000000081526004016108919061304e565b60405180910390fd5b80915050919050565b60008073ffffffffffffffffffffffffffffffffffffffff168273ffffffffffffffffffffffffffffffffffffffff1603610913576040517f08c379a000000000000000000000000000000000000000000000000000000000815260040161090a906130e0565b60405180910390fd5b600360008373ffffffffffffffffffffffffffffffffffffffff1673ffffffffffffffffffffffffffffffffffffffff168152602001908152602001600020549050919050565b60606006805480602002602001604051908101604052809291908181526020016000905b82821015610bd757838290600052602060002090600502016040518060a00160405290816000820180546109b190612a33565b80601f01602080910402602001604051908101604052809291908181526020018280546109dd90612a33565b8015610a2a5780601f106109ff57610100808354040283529160200191610a2a565b820191906000526020600020905b815481529060010190602001808311610a0d57829003601f168201915b505050505081526020016001820160009054906101000a900460ff16151515158152602001600282018054610a5e90612a33565b80601f0160208091040260200160405190810160405280929190818152602001828054610a8a90612a33565b8015610ad75780601f10610aac57610100808354040283529160200191610ad7565b820191906000526020600020905b815481529060010190602001808311610aba57829003601f168201915b50505050508152602001600382018054610af090612a33565b80601f0160208091040260200160405190810160405280929190818152602001828054610b1c90612a33565b8015610b695780601f10610b3e57610100808354040283529160200191610b69565b820191906000526020600020905b815481529060010190602001808311610b4c57829003601f168201915b505050505081526020016004820160009054906101000a900473ffffffffffffffffffffffffffffffffffffffff1673ffffffffffffffffffffffffffffffffffffffff1673ffffffffffffffffffffffffffffffffffffffff16815250508152602001906001019061097e565b50505050905090565b606060006060600084118015610bfb57506006805490508411155b610c3a576040517f08c379a0000000000000000000000000000000000000000000000000000000008152600401610c3190612c66565b60405180910390fd5b60006006600186610c4b9190612cb5565b81548110610c5c57610c5b612ce9565b5b90600052602060002090600502019050806002018160010160009054906101000a900460ff1682600301828054610c9290612a33565b80601f0160208091040260200160405190810160405280929190818152602001828054610cbe90612a33565b8015610d0b5780601f10610ce057610100808354040283529160200191610d0b565b820191906000526020600020905b815481529060010190602001808311610cee57829003601f168201915b50505050509250808054610d1e90612a33565b80601f0160208091040260200160405190810160405280929190818152602001828054610d4a90612a33565b8015610d975780601f10610d6c57610100808354040283529160200191610d97565b820191906000526020600020905b815481529060010190602001808311610d7a57829003601f168201915b50505050509050935093509350509193909250565b606060018054610dbb90612a33565b80601f0160208091040260200160405190810160405280929190818152602001828054610de790612a33565b8015610e345780601f10610e0957610100808354040283529160200191610e34565b820191906000526020600020905b815481529060010190602001808311610e1757829003601f168201915b5050505050905090565b610e50610e49611383565b838361180f565b5050565b610e65610e5f611383565b83611444565b610ea4576040517f08c379a0000000000000000000000000000000000000000000000000000000008152600401610e9b90612bfa565b60405180910390fd5b610eb08484848461197b565b50505050565b6060610ec182611338565b6000610ecb6119d7565b90506000815111610eeb5760405180602001604052806000815250610f16565b80610ef5846119ee565b604051602001610f0692919061313c565b6040516020818303038152906040525b915050919050565b6000845111610f62576040517f08c379a0000000000000000000000000000000000000000000000000000000008152600401610f59906131ac565b60405180910390fd5b609683511115610fa7576040517f08c379a0000000000000000000000000000000000000000000000000000000008152600401610f9e9061323e565b60405180910390fd5b600860003373ffffffffffffffffffffffffffffffffffffffff1673ffffffffffffffffffffffffffffffffffffffff16815260200190815260200160002060009054906101000a900460ff1615611034576040517f08c379a000000000000000000000000000000000000000000000000000000000815260040161102b906132d0565b60405180910390fd5b61103c612023565b8481600001819052508381604001819052508281602001901515908115158152505081816060018190525033816080019073ffffffffffffffffffffffffffffffffffffffff16908173ffffffffffffffffffffffffffffffffffffffff1681525050600060016006805490506110b391906132f0565b90506110bf3382611abc565b600682908060018154018082558091505060019003906000526020600020906005020160009091909190915060008201518160000190816111009190612f30565b5060208201518160010160006101000a81548160ff02191690831515021790555060408201518160020190816111369190612f30565b50606082015181600301908161114c9190612f30565b5060808201518160040160006101000a81548173ffffffffffffffffffffffffffffffffffffffff021916908373ffffffffffffffffffffffffffffffffffffffff16021790555050506001600860003373ffffffffffffffffffffffffffffffffffffffff1673ffffffffffffffffffffffffffffffffffffffff16815260200190815260200160002060006101000a81548160ff021916908315150217905550803373ffffffffffffffffffffffffffffffffffffffff167faf62702571aa2959cc884d2d2f058f2dde9f91f8cb7b5a5c62887ec1aef856e760405160405180910390a3505050505050565b6000600560008473ffffffffffffffffffffffffffffffffffffffff1673ffffffffffffffffffffffffffffffffffffffff16815260200190815260200160002060008373ffffffffffffffffffffffffffffffffffffffff1673ffffffffffffffffffffffffffffffffffffffff16815260200190815260200160002060009054906101000a900460ff16905092915050565b60007f01ffc9a7000000000000000000000000000000000000000000000000000000007bffffffffffffffffffffffffffffffffffffffffffffffffffffffff1916827bffffffffffffffffffffffffffffffffffffffffffffffffffffffff1916149050919050565b61134181611cd9565b611380576040517f08c379a00000000000000000000000000000000000000000000000000000000081526004016113779061304e565b60405180910390fd5b50565b600033905090565b816004600083815260200190815260200160002060006101000a81548173ffffffffffffffffffffffffffffffffffffffff021916908373ffffffffffffffffffffffffffffffffffffffff160217905550808273ffffffffffffffffffffffffffffffffffffffff166113fe8361081d565b73ffffffffffffffffffffffffffffffffffffffff167f8c5be1e5ebec7d5bd14f71427d1e84f3dd0314c0f7b2291e5b200ac8c7c3b92560405160405180910390a45050565b6000806114508361081d565b90508073ffffffffffffffffffffffffffffffffffffffff168473ffffffffffffffffffffffffffffffffffffffff1614806114925750611491818561123a565b5b806114d057508373ffffffffffffffffffffffffffffffffffffffff166114b8846104f4565b73ffffffffffffffffffffffffffffffffffffffff16145b91505092915050565b8273ffffffffffffffffffffffffffffffffffffffff166114f98261081d565b73ffffffffffffffffffffffffffffffffffffffff161461154f576040517f08c379a000000000000000000000000000000000000000000000000000000000815260040161154690613396565b60405180910390fd5b600073ffffffffffffffffffffffffffffffffffffffff168273ffffffffffffffffffffffffffffffffffffffff16036115be576040517f08c379a00000000000000000000000000000000000000000000000000000000081526004016115b590613428565b60405180910390fd5b6115cb8383836001611d1a565b8273ffffffffffffffffffffffffffffffffffffffff166115eb8261081d565b73ffffffffffffffffffffffffffffffffffffffff1614611641576040517f08c379a000000000000000000000000000000000000000000000000000000000815260040161163890613396565b60405180910390fd5b6004600082815260200190815260200160002060006101000a81549073ffffffffffffffffffffffffffffffffffffffff02191690556001600360008573ffffffffffffffffffffffffffffffffffffffff1673ffffffffffffffffffffffffffffffffffffffff168152602001908152602001600020600082825403925050819055506001600360008473ffffffffffffffffffffffffffffffffffffffff1673ffffffffffffffffffffffffffffffffffffffff16815260200190815260200160002060008282540192505081905550816002600083815260200190815260200160002060006101000a81548173ffffffffffffffffffffffffffffffffffffffff021916908373ffffffffffffffffffffffffffffffffffffffff160217905550808273ffffffffffffffffffffffffffffffffffffffff168473ffffffffffffffffffffffffffffffffffffffff167fddf252ad1be2c89b69c2b068fc378daa952ba7f163c4a11628f55a4df523b3ef60405160405180910390a46117cd8383836001611d20565b505050565b60006002600083815260200190815260200160002060009054906101000a900473ffffffffffffffffffffffffffffffffffffffff169050919050565b8173ffffffffffffffffffffffffffffffffffffffff168373ffffffffffffffffffffffffffffffffffffffff160361187d576040517f08c379a000000000000000000000000000000000000000000000000000000000815260040161187490613494565b60405180910390fd5b80600560008573ffffffffffffffffffffffffffffffffffffffff1673ffffffffffffffffffffffffffffffffffffffff16815260200190815260200160002060008473ffffffffffffffffffffffffffffffffffffffff1673ffffffffffffffffffffffffffffffffffffffff16815260200190815260200160002060006101000a81548160ff0219169083151502179055508173ffffffffffffffffffffffffffffffffffffffff168373ffffffffffffffffffffffffffffffffffffffff167f17307eab39ab6107e8899845ad3d59bd9653f200f220920489ca2b5937696c318360405161196e919061211e565b60405180910390a3505050565b6119868484846114d9565b61199284848484611d26565b6119d1576040517f08c379a00000000000000000000000000000000000000000000000000000000081526004016119c890613526565b60405180910390fd5b50505050565b606060405180602001604052806000815250905090565b6060600060016119fd84611ead565b01905060008167ffffffffffffffff811115611a1c57611a1b612373565b5b6040519080825280601f01601f191660200182016040528015611a4e5781602001600182028036833780820191505090505b509050600082602001820190505b600115611ab1578080600190039150507f3031323334353637383961626364656600000000000000000000000000000000600a86061a8153600a8581611aa557611aa4613546565b5b04945060008503611a5c575b819350505050919050565b600073ffffffffffffffffffffffffffffffffffffffff168273ffffffffffffffffffffffffffffffffffffffff1603611b2b576040517f08c379a0000000000000000000000000000000000000000000000000000000008152600401611b22906135c1565b60405180910390fd5b611b3481611cd9565b15611b74576040517f08c379a0000000000000000000000000000000000000000000000000000000008152600401611b6b9061362d565b60405180910390fd5b611b82600083836001611d1a565b611b8b81611cd9565b15611bcb576040517f08c379a0000000000000000000000000000000000000000000000000000000008152600401611bc29061362d565b60405180910390fd5b6001600360008473ffffffffffffffffffffffffffffffffffffffff1673ffffffffffffffffffffffffffffffffffffffff16815260200190815260200160002060008282540192505081905550816002600083815260200190815260200160002060006101000a81548173ffffffffffffffffffffffffffffffffffffffff021916908373ffffffffffffffffffffffffffffffffffffffff160217905550808273ffffffffffffffffffffffffffffffffffffffff16600073ffffffffffffffffffffffffffffffffffffffff167fddf252ad1be2c89b69c2b068fc378daa952ba7f163c4a11628f55a4df523b3ef60405160405180910390a4611cd5600083836001611d20565b5050565b60008073ffffffffffffffffffffffffffffffffffffffff16611cfb836117d2565b73ffffffffffffffffffffffffffffffffffffffff1614159050919050565b50505050565b50505050565b6000611d478473ffffffffffffffffffffffffffffffffffffffff16612000565b15611ea0578373ffffffffffffffffffffffffffffffffffffffff1663150b7a02611d70611383565b8786866040518563ffffffff1660e01b8152600401611d9294939291906136a2565b6020604051808303816000875af1925050508015611dce57506040513d601f19601f82011682018060405250810190611dcb9190613703565b60015b611e50573d8060008114611dfe576040519150601f19603f3d011682016040523d82523d6000602084013e611e03565b606091505b506000815103611e48576040517f08c379a0000000000000000000000000000000000000000000000000000000008152600401611e3f90613526565b60405180910390fd5b805181602001fd5b63150b7a0260e01b7bffffffffffffffffffffffffffffffffffffffffffffffffffffffff1916817bffffffffffffffffffffffffffffffffffffffffffffffffffffffff191614915050611ea5565b600190505b949350505050565b600080600090507a184f03e93ff9f4daa797ed6e38ed64bf6a1f0100000000000000008310611f0b577a184f03e93ff9f4daa797ed6e38ed64bf6a1f0100000000000000008381611f0157611f00613546565b5b0492506040810190505b6d04ee2d6d415b85acef81000000008310611f48576d04ee2d6d415b85acef81000000008381611f3e57611f3d613546565b5b0492506020810190505b662386f26fc100008310611f7757662386f26fc100008381611f6d57611f6c613546565b5b0492506010810190505b6305f5e1008310611fa0576305f5e1008381611f9657611f95613546565b5b0492506008810190505b6127108310611fc5576127108381611fbb57611fba613546565b5b0492506004810190505b60648310611fe85760648381611fde57611fdd613546565b5b0492506002810190505b600a8310611ff7576001810190505b80915050919050565b6000808273ffffffffffffffffffffffffffffffffffffffff163b119050919050565b6040518060a00160405280606081526020016000151581526020016060815260200160608152602001600073ffffffffffffffffffffffffffffffffffffffff1681525090565b6000604051905090565b600080fd5b600080fd5b60007fffffffff0000000000000000000000000000000000000000000000000000000082169050919050565b6120b38161207e565b81146120be57600080fd5b50565b6000813590506120d0816120aa565b92915050565b6000602082840312156120ec576120eb612074565b5b60006120fa848285016120c1565b91505092915050565b60008115159050919050565b61211881612103565b82525050565b6000602082019050612133600083018461210f565b92915050565b600081519050919050565b600082825260208201905092915050565b60005b83811015612173578082015181840152602081019050612158565b60008484015250505050565b6000601f19601f8301169050919050565b600061219b82612139565b6121a58185612144565b93506121b5818560208601612155565b6121be8161217f565b840191505092915050565b600060208201905081810360008301526121e38184612190565b905092915050565b6000819050919050565b6121fe816121eb565b811461220957600080fd5b50565b60008135905061221b816121f5565b92915050565b60006020828403121561223757612236612074565b5b60006122458482850161220c565b91505092915050565b600073ffffffffffffffffffffffffffffffffffffffff82169050919050565b60006122798261224e565b9050919050565b6122898161226e565b82525050565b60006020820190506122a46000830184612280565b92915050565b6122b38161226e565b81146122be57600080fd5b50565b6000813590506122d0816122aa565b92915050565b600080604083850312156122ed576122ec612074565b5b60006122fb858286016122c1565b925050602061230c8582860161220c565b9150509250929050565b60008060006060848603121561232f5761232e612074565b5b600061233d868287016122c1565b935050602061234e868287016122c1565b925050604061235f8682870161220c565b9150509250925092565b600080fd5b600080fd5b7f4e487b7100000000000000000000000000000000000000000000000000000000600052604160045260246000fd5b6123ab8261217f565b810181811067ffffffffffffffff821117156123ca576123c9612373565b5b80604052505050565b60006123dd61206a565b90506123e982826123a2565b919050565b600067ffffffffffffffff82111561240957612408612373565b5b6124128261217f565b9050602081019050919050565b82818337600083830152505050565b600061244161243c846123ee565b6123d3565b90508281526020810184848401111561245d5761245c61236e565b5b61246884828561241f565b509392505050565b600082601f83011261248557612484612369565b5b813561249584826020860161242e565b91505092915050565b6124a781612103565b81146124b257600080fd5b50565b6000813590506124c48161249e565b92915050565b6000806000606084860312156124e3576124e2612074565b5b60006124f18682870161220c565b935050602084013567ffffffffffffffff81111561251257612511612079565b5b61251e86828701612470565b925050604061252f868287016124b5565b9150509250925092565b60006020828403121561254f5761254e612074565b5b600061255d848285016122c1565b91505092915050565b61256f816121eb565b82525050565b600060208201905061258a6000830184612566565b92915050565b600081519050919050565b600082825260208201905092915050565b6000819050602082019050919050565b600082825260208201905092915050565b60006125d882612139565b6125e281856125bc565b93506125f2818560208601612155565b6125fb8161217f565b840191505092915050565b61260f81612103565b82525050565b61261e8161226e565b82525050565b600060a083016000830151848203600086015261264182826125cd565b91505060208301516126566020860182612606565b506040830151848203604086015261266e82826125cd565b9150506060830151848203606086015261268882826125cd565b915050608083015161269d6080860182612615565b508091505092915050565b60006126b48383612624565b905092915050565b6000602082019050919050565b60006126d482612590565b6126de818561259b565b9350836020820285016126f0856125ac565b8060005b8581101561272c578484038952815161270d85826126a8565b9450612718836126bc565b925060208a019950506001810190506126f4565b50829750879550505050505092915050565b6000602082019050818103600083015261275881846126c9565b905092915050565b6000606082019050818103600083015261277a8186612190565b9050612789602083018561210f565b818103604083015261279b8184612190565b9050949350505050565b600080604083850312156127bc576127bb612074565b5b60006127ca858286016122c1565b92505060206127db858286016124b5565b9150509250929050565b600067ffffffffffffffff821115612800576127ff612373565b5b6128098261217f565b9050602081019050919050565b6000612829612824846127e5565b6123d3565b9050828152602081018484840111156128455761284461236e565b5b61285084828561241f565b509392505050565b600082601f83011261286d5761286c612369565b5b813561287d848260208601612816565b91505092915050565b600080600080608085870312156128a05761289f612074565b5b60006128ae878288016122c1565b94505060206128bf878288016122c1565b93505060406128d08782880161220c565b925050606085013567ffffffffffffffff8111156128f1576128f0612079565b5b6128fd87828801612858565b91505092959194509250565b6000806000806080858703121561292357612922612074565b5b600085013567ffffffffffffffff81111561294157612940612079565b5b61294d87828801612470565b945050602085013567ffffffffffffffff81111561296e5761296d612079565b5b61297a87828801612470565b935050604061298b878288016124b5565b925050606085013567ffffffffffffffff8111156129ac576129ab612079565b5b6129b887828801612470565b91505092959194509250565b600080604083850312156129db576129da612074565b5b60006129e9858286016122c1565b92505060206129fa858286016122c1565b9150509250929050565b7f4e487b7100000000000000000000000000000000000000000000000000000000600052602260045260246000fd5b60006002820490506001821680612a4b57607f821691505b602082108103612a5e57612a5d612a04565b5b50919050565b7f4552433732313a20617070726f76616c20746f2063757272656e74206f776e6560008201527f7200000000000000000000000000000000000000000000000000000000000000602082015250565b6000612ac0602183612144565b9150612acb82612a64565b604082019050919050565b60006020820190508181036000830152612aef81612ab3565b9050919050565b7f4552433732313a20617070726f76652063616c6c6572206973206e6f7420746f60008201527f6b656e206f776e6572206f7220617070726f76656420666f7220616c6c000000602082015250565b6000612b52603d83612144565b9150612b5d82612af6565b604082019050919050565b60006020820190508181036000830152612b8181612b45565b9050919050565b7f4552433732313a2063616c6c6572206973206e6f7420746f6b656e206f776e6560008201527f72206f7220617070726f76656400000000000000000000000000000000000000602082015250565b6000612be4602d83612144565b9150612bef82612b88565b604082019050919050565b60006020820190508181036000830152612c1381612bd7565b9050919050565b7f496e76616c696420746f6b656e20494400000000000000000000000000000000600082015250565b6000612c50601083612144565b9150612c5b82612c1a565b602082019050919050565b60006020820190508181036000830152612c7f81612c43565b9050919050565b7f4e487b7100000000000000000000000000000000000000000000000000000000600052601160045260246000fd5b6000612cc0826121eb565b9150612ccb836121eb565b9250828203905081811115612ce357612ce2612c86565b5b92915050565b7f4e487b7100000000000000000000000000000000000000000000000000000000600052603260045260246000fd5b7f4e6f7420746865206f776e6572206f6620746865206964656e74697479000000600082015250565b6000612d4e601d83612144565b9150612d5982612d18565b602082019050919050565b60006020820190508181036000830152612d7d81612d41565b9050919050565b60008190508160005260206000209050919050565b60006020601f8301049050919050565b600082821b905092915050565b600060088302612de67fffffffffffffffffffffffffffffffffffffffffffffffffffffffffffffffff82612da9565b612df08683612da9565b95508019841693508086168417925050509392505050565b6000819050919050565b6000612e2d612e28612e23846121eb565b612e08565b6121eb565b9050919050565b6000819050919050565b612e4783612e12565b612e5b612e5382612e34565b848454612db6565b825550505050565b600090565b612e70612e63565b612e7b818484612e3e565b505050565b5b81811015612e9f57612e94600082612e68565b600181019050612e81565b5050565b601f821115612ee457612eb581612d84565b612ebe84612d99565b81016020851015612ecd578190505b612ee1612ed985612d99565b830182612e80565b50505b505050565b600082821c905092915050565b6000612f0760001984600802612ee9565b1980831691505092915050565b6000612f208383612ef6565b9150826002028217905092915050565b612f3982612139565b67ffffffffffffffff811115612f5257612f51612373565b5b612f5c8254612a33565b612f67828285612ea3565b600060209050601f831160018114612f9a5760008415612f88578287015190505b612f928582612f14565b865550612ffa565b601f198416612fa886612d84565b60005b82811015612fd057848901518255600182019150602085019450602081019050612fab565b86831015612fed5784890151612fe9601f891682612ef6565b8355505b6001600288020188555050505b505050505050565b7f4552433732313a20696e76616c696420746f6b656e2049440000000000000000600082015250565b6000613038601883612144565b915061304382613002565b602082019050919050565b600060208201905081810360008301526130678161302b565b9050919050565b7f4552433732313a2061646472657373207a65726f206973206e6f74206120766160008201527f6c6964206f776e65720000000000000000000000000000000000000000000000602082015250565b60006130ca602983612144565b91506130d58261306e565b604082019050919050565b600060208201905081810360008301526130f9816130bd565b9050919050565b600081905092915050565b600061311682612139565b6131208185613100565b9350613130818560208601612155565b80840191505092915050565b6000613148828561310b565b9150613154828461310b565b91508190509392505050565b7f4e616d652063616e6e6f7420626520656d707479000000000000000000000000600082015250565b6000613196601483612144565b91506131a182613160565b602082019050919050565b600060208201905081810360008301526131c581613189565b9050919050565b7f54686f75676874732063616e206265206174206d6f737420313530206368617260008201527f6163746572730000000000000000000000000000000000000000000000000000602082015250565b6000613228602683612144565b9150613233826131cc565b604082019050919050565b600060208201905081810360008301526132578161321b565b9050919050565b7f4f6e6c79206f6e65206964656e7469747920616c6c6f7765642070657220757360008201527f6572000000000000000000000000000000000000000000000000000000000000602082015250565b60006132ba602283612144565b91506132c58261325e565b604082019050919050565b600060208201905081810360008301526132e9816132ad565b9050919050565b60006132fb826121eb565b9150613306836121eb565b925082820190508082111561331e5761331d612c86565b5b92915050565b7f4552433732313a207472616e736665722066726f6d20696e636f72726563742060008201527f6f776e6572000000000000000000000000000000000000000000000000000000602082015250565b6000613380602583612144565b915061338b82613324565b604082019050919050565b600060208201905081810360008301526133af81613373565b9050919050565b7f4552433732313a207472616e7366657220746f20746865207a65726f2061646460008201527f7265737300000000000000000000000000000000000000000000000000000000602082015250565b6000613412602483612144565b915061341d826133b6565b604082019050919050565b6000602082019050818103600083015261344181613405565b9050919050565b7f4552433732313a20617070726f766520746f2063616c6c657200000000000000600082015250565b600061347e601983612144565b915061348982613448565b602082019050919050565b600060208201905081810360008301526134ad81613471565b9050919050565b7f4552433732313a207472616e7366657220746f206e6f6e20455243373231526560008201527f63656976657220696d706c656d656e7465720000000000000000000000000000602082015250565b6000613510603283612144565b915061351b826134b4565b604082019050919050565b6000602082019050818103600083015261353f81613503565b9050919050565b7f4e487b7100000000000000000000000000000000000000000000000000000000600052601260045260246000fd5b7f4552433732313a206d696e7420746f20746865207a65726f2061646472657373600082015250565b60006135ab602083612144565b91506135b682613575565b602082019050919050565b600060208201905081810360008301526135da8161359e565b9050919050565b7f4552433732313a20746f6b656e20616c7265616479206d696e74656400000000600082015250565b6000613617601c83612144565b9150613622826135e1565b602082019050919050565b600060208201905081810360008301526136468161360a565b9050919050565b600081519050919050565b600082825260208201905092915050565b60006136748261364d565b61367e8185613658565b935061368e818560208601612155565b6136978161217f565b840191505092915050565b60006080820190506136b76000830187612280565b6136c46020830186612280565b6136d16040830185612566565b81810360608301526136e38184613669565b905095945050505050565b6000815190506136fd816120aa565b92915050565b60006020828403121561371957613718612074565b5b6000613727848285016136ee565b9150509291505056fea26469706673582212209962391e59dfd73726433fe946ed4b84d9e20bf5769bc8608dd5e1d83d171a7a64736f6c63430008110033",
  "linkReferences": {},
  "deployedLinkReferences": {}
}